{
  "contractName": "SolnSquareVerifier",
  "abi": [
    {
      "inputs": [
        {
          "internalType": "address",
          "name": "verifierAddress",
          "type": "address"
        },
        {
          "internalType": "string",
          "name": "name",
          "type": "string"
        },
        {
          "internalType": "string",
          "name": "symbol",
          "type": "string"
        }
      ],
      "payable": false,
      "stateMutability": "nonpayable",
      "type": "constructor"
    },
    {
      "anonymous": false,
      "inputs": [
        {
          "indexed": true,
          "internalType": "address",
          "name": "owner",
          "type": "address"
        },
        {
          "indexed": true,
          "internalType": "address",
          "name": "approved",
          "type": "address"
        },
        {
          "indexed": true,
          "internalType": "uint256",
          "name": "tokenId",
          "type": "uint256"
        }
      ],
      "name": "Approval",
      "type": "event"
    },
    {
      "anonymous": false,
      "inputs": [
        {
          "indexed": true,
          "internalType": "address",
          "name": "owner",
          "type": "address"
        },
        {
          "indexed": true,
          "internalType": "address",
          "name": "operator",
          "type": "address"
        },
        {
          "indexed": false,
          "internalType": "bool",
          "name": "approved",
          "type": "bool"
        }
      ],
      "name": "ApprovalForAll",
      "type": "event"
    },
    {
      "anonymous": false,
      "inputs": [
        {
          "indexed": true,
          "internalType": "address",
          "name": "previousOwner",
          "type": "address"
        },
        {
          "indexed": true,
          "internalType": "address",
          "name": "newOwner",
          "type": "address"
        }
      ],
      "name": "OwnershipTransferred",
      "type": "event"
    },
    {
      "anonymous": false,
      "inputs": [
        {
          "indexed": true,
          "internalType": "address",
          "name": "account",
          "type": "address"
        }
      ],
      "name": "Paused",
      "type": "event"
    },
    {
      "anonymous": false,
      "inputs": [
        {
          "indexed": false,
          "internalType": "uint256",
          "name": "solutionIndex",
          "type": "uint256"
        },
        {
          "indexed": true,
          "internalType": "address",
          "name": "solutionAddress",
          "type": "address"
        }
      ],
      "name": "SolutionAdded",
      "type": "event"
    },
    {
      "anonymous": false,
      "inputs": [
        {
          "indexed": true,
          "internalType": "address",
          "name": "from",
          "type": "address"
        },
        {
          "indexed": true,
          "internalType": "address",
          "name": "to",
          "type": "address"
        },
        {
          "indexed": true,
          "internalType": "uint256",
          "name": "tokenId",
          "type": "uint256"
        }
      ],
      "name": "Transfer",
      "type": "event"
    },
    {
      "anonymous": false,
      "inputs": [
        {
          "indexed": true,
          "internalType": "address",
          "name": "account",
          "type": "address"
        }
      ],
      "name": "Unpaused",
      "type": "event"
    },
    {
      "constant": false,
      "inputs": [
        {
          "internalType": "bytes32",
          "name": "_myid",
          "type": "bytes32"
        },
        {
          "internalType": "string",
          "name": "_result",
          "type": "string"
        }
      ],
      "name": "__callback",
      "outputs": [],
      "payable": false,
      "stateMutability": "nonpayable",
      "type": "function"
    },
    {
      "constant": false,
      "inputs": [
        {
          "internalType": "bytes32",
          "name": "_myid",
          "type": "bytes32"
        },
        {
          "internalType": "string",
          "name": "_result",
          "type": "string"
        },
        {
          "internalType": "bytes",
          "name": "_proof",
          "type": "bytes"
        }
      ],
      "name": "__callback",
      "outputs": [],
      "payable": false,
      "stateMutability": "nonpayable",
      "type": "function"
    },
    {
      "constant": false,
      "inputs": [
        {
          "internalType": "address",
          "name": "to",
          "type": "address"
        },
        {
          "internalType": "uint256",
          "name": "tokenId",
          "type": "uint256"
        }
      ],
      "name": "approve",
      "outputs": [],
      "payable": false,
      "stateMutability": "nonpayable",
      "type": "function"
    },
    {
      "constant": true,
      "inputs": [
        {
          "internalType": "address",
          "name": "owner",
          "type": "address"
        }
      ],
      "name": "balanceOf",
      "outputs": [
        {
          "internalType": "uint256",
          "name": "",
          "type": "uint256"
        }
      ],
      "payable": false,
      "stateMutability": "view",
      "type": "function"
    },
    {
      "constant": true,
      "inputs": [],
      "name": "baseTokenURI",
      "outputs": [
        {
          "internalType": "string",
          "name": "",
          "type": "string"
        }
      ],
      "payable": false,
      "stateMutability": "view",
      "type": "function"
    },
    {
      "constant": true,
      "inputs": [
        {
          "internalType": "uint256",
          "name": "tokenId",
          "type": "uint256"
        }
      ],
      "name": "getApproved",
      "outputs": [
        {
          "internalType": "address",
          "name": "",
          "type": "address"
        }
      ],
      "payable": false,
      "stateMutability": "view",
      "type": "function"
    },
    {
      "constant": true,
      "inputs": [
        {
          "internalType": "address",
          "name": "owner",
          "type": "address"
        },
        {
          "internalType": "address",
          "name": "operator",
          "type": "address"
        }
      ],
      "name": "isApprovedForAll",
      "outputs": [
        {
          "internalType": "bool",
          "name": "",
          "type": "bool"
        }
      ],
      "payable": false,
      "stateMutability": "view",
      "type": "function"
    },
    {
      "constant": false,
      "inputs": [
        {
          "internalType": "address",
          "name": "to",
          "type": "address"
        },
        {
          "internalType": "uint256",
          "name": "tokenId",
          "type": "uint256"
        }
      ],
      "name": "mint",
      "outputs": [
        {
          "internalType": "bool",
          "name": "",
          "type": "bool"
        }
      ],
      "payable": false,
      "stateMutability": "nonpayable",
      "type": "function"
    },
    {
      "constant": true,
      "inputs": [],
      "name": "name",
      "outputs": [
        {
          "internalType": "string",
          "name": "",
          "type": "string"
        }
      ],
      "payable": false,
      "stateMutability": "view",
      "type": "function"
    },
    {
      "constant": false,
      "inputs": [],
      "name": "owner",
      "outputs": [
        {
          "internalType": "address",
          "name": "",
          "type": "address"
        }
      ],
      "payable": false,
      "stateMutability": "nonpayable",
      "type": "function"
    },
    {
      "constant": true,
      "inputs": [
        {
          "internalType": "uint256",
          "name": "tokenId",
          "type": "uint256"
        }
      ],
      "name": "ownerOf",
      "outputs": [
        {
          "internalType": "address",
          "name": "",
          "type": "address"
        }
      ],
      "payable": false,
      "stateMutability": "view",
      "type": "function"
    },
    {
      "constant": false,
      "inputs": [],
      "name": "pause",
      "outputs": [],
      "payable": false,
      "stateMutability": "nonpayable",
      "type": "function"
    },
    {
      "constant": false,
      "inputs": [
        {
          "internalType": "address",
          "name": "from",
          "type": "address"
        },
        {
          "internalType": "address",
          "name": "to",
          "type": "address"
        },
        {
          "internalType": "uint256",
          "name": "tokenId",
          "type": "uint256"
        }
      ],
      "name": "safeTransferFrom",
      "outputs": [],
      "payable": false,
      "stateMutability": "nonpayable",
      "type": "function"
    },
    {
      "constant": false,
      "inputs": [
        {
          "internalType": "address",
          "name": "from",
          "type": "address"
        },
        {
          "internalType": "address",
          "name": "to",
          "type": "address"
        },
        {
          "internalType": "uint256",
          "name": "tokenId",
          "type": "uint256"
        },
        {
          "internalType": "bytes",
          "name": "_data",
          "type": "bytes"
        }
      ],
      "name": "safeTransferFrom",
      "outputs": [],
      "payable": false,
      "stateMutability": "nonpayable",
      "type": "function"
    },
    {
      "constant": false,
      "inputs": [
        {
          "internalType": "address",
          "name": "to",
          "type": "address"
        },
        {
          "internalType": "bool",
          "name": "approved",
          "type": "bool"
        }
      ],
      "name": "setApprovalForAll",
      "outputs": [],
      "payable": false,
      "stateMutability": "nonpayable",
      "type": "function"
    },
    {
      "constant": true,
      "inputs": [
        {
          "internalType": "bytes4",
          "name": "interfaceId",
          "type": "bytes4"
        }
      ],
      "name": "supportsInterface",
      "outputs": [
        {
          "internalType": "bool",
          "name": "",
          "type": "bool"
        }
      ],
      "payable": false,
      "stateMutability": "view",
      "type": "function"
    },
    {
      "constant": true,
      "inputs": [],
      "name": "symbol",
      "outputs": [
        {
          "internalType": "string",
          "name": "",
          "type": "string"
        }
      ],
      "payable": false,
      "stateMutability": "view",
      "type": "function"
    },
    {
      "constant": true,
      "inputs": [
        {
          "internalType": "uint256",
          "name": "index",
          "type": "uint256"
        }
      ],
      "name": "tokenByIndex",
      "outputs": [
        {
          "internalType": "uint256",
          "name": "",
          "type": "uint256"
        }
      ],
      "payable": false,
      "stateMutability": "view",
      "type": "function"
    },
    {
      "constant": true,
      "inputs": [
        {
          "internalType": "address",
          "name": "owner",
          "type": "address"
        },
        {
          "internalType": "uint256",
          "name": "index",
          "type": "uint256"
        }
      ],
      "name": "tokenOfOwnerByIndex",
      "outputs": [
        {
          "internalType": "uint256",
          "name": "",
          "type": "uint256"
        }
      ],
      "payable": false,
      "stateMutability": "view",
      "type": "function"
    },
    {
      "constant": true,
      "inputs": [
        {
          "internalType": "uint256",
          "name": "tokenId",
          "type": "uint256"
        }
      ],
      "name": "tokenURI",
      "outputs": [
        {
          "internalType": "string",
          "name": "",
          "type": "string"
        }
      ],
      "payable": false,
      "stateMutability": "view",
      "type": "function"
    },
    {
      "constant": true,
      "inputs": [],
      "name": "totalSupply",
      "outputs": [
        {
          "internalType": "uint256",
          "name": "",
          "type": "uint256"
        }
      ],
      "payable": false,
      "stateMutability": "view",
      "type": "function"
    },
    {
      "constant": false,
      "inputs": [
        {
          "internalType": "address",
          "name": "from",
          "type": "address"
        },
        {
          "internalType": "address",
          "name": "to",
          "type": "address"
        },
        {
          "internalType": "uint256",
          "name": "tokenId",
          "type": "uint256"
        }
      ],
      "name": "transferFrom",
      "outputs": [],
      "payable": false,
      "stateMutability": "nonpayable",
      "type": "function"
    },
    {
      "constant": false,
      "inputs": [
        {
          "internalType": "address",
          "name": "newOwner",
          "type": "address"
        }
      ],
      "name": "transferOwnership",
      "outputs": [],
      "payable": false,
      "stateMutability": "nonpayable",
      "type": "function"
    },
    {
      "constant": false,
      "inputs": [],
      "name": "unpause",
      "outputs": [],
      "payable": false,
      "stateMutability": "nonpayable",
      "type": "function"
    },
    {
      "constant": false,
      "inputs": [
        {
          "internalType": "uint256[2]",
          "name": "a",
          "type": "uint256[2]"
        },
        {
          "internalType": "uint256[2][2]",
          "name": "b",
          "type": "uint256[2][2]"
        },
        {
          "internalType": "uint256[2]",
          "name": "c",
          "type": "uint256[2]"
        },
        {
          "internalType": "uint256[2]",
          "name": "input",
          "type": "uint256[2]"
        }
      ],
      "name": "addSolution",
      "outputs": [],
      "payable": false,
      "stateMutability": "nonpayable",
      "type": "function"
    },
    {
      "constant": false,
      "inputs": [
        {
          "internalType": "uint256",
          "name": "a",
          "type": "uint256"
        },
        {
          "internalType": "uint256",
          "name": "b",
          "type": "uint256"
        },
        {
          "internalType": "address",
          "name": "to",
          "type": "address"
        }
      ],
      "name": "mintNewNFT",
      "outputs": [],
      "payable": false,
      "stateMutability": "nonpayable",
      "type": "function"
    }
  ],
  "bytecode": "0x608060405260006014553480156200001657600080fd5b506040516200272738038062002727833981810160405260608110156200003c57600080fd5b8151602083018051604051929492938301929190846401000000008211156200006457600080fd5b9083019060208201858111156200007a57600080fd5b82516401000000008111828201881017156200009557600080fd5b82525081516020918201929091019080838360005b83811015620000c4578181015183820152602001620000aa565b50505050905090810190601f168015620000f25780820380516001836020036101000a031916815260200191505b50604052602001805160405193929190846401000000008211156200011657600080fd5b9083019060208201858111156200012c57600080fd5b82516401000000008111828201881017156200014757600080fd5b82525081516020918201929091019080838360005b83811015620001765781810151838201526020016200015c565b50505050905090810190601f168015620001a45780820380516001836020036101000a031916815260200191505b50604052505050818181816040518060600160405280603f8152602001620026e8603f9139600080546001600160a01b03191633178082556040516001600160a01b039190911691907f8be0079c531659141344cd1fd0a4f28419497f9722a3daafe3b4186f6b6457e0908290a36000805460ff60a01b191690556200023a6301ffc9a760e01b6001600160e01b03620002fc16565b620002556380ac58cd60e01b6001600160e01b03620002fc16565b6200027063780e9d6360e01b6001600160e01b03620002fc16565b82516200028590600f9060208601906200033c565b5081516200029b9060109060208501906200033c565b508051620002b19060119060208401906200033c565b50620002cd635b5e139f60e01b6001600160e01b03620002fc16565b5050601380546001600160a01b0319166001600160a01b03979097169690961790955550620003e19350505050565b6001600160e01b031980821614156200031457600080fd5b6001600160e01b0319166000908152600160208190526040909120805460ff19169091179055565b828054600181600116156101000203166002900490600052602060002090601f016020900481019282601f106200037f57805160ff1916838001178555620003af565b82800160010185558215620003af579182015b82811115620003af57825182559160200191906001019062000392565b50620003bd929150620003c1565b5090565b620003de91905b80821115620003bd5760008155600101620003c8565b90565b6122f780620003f16000396000f3fe608060405234801561001057600080fd5b506004361061018e5760003560e01c80634f6ccce7116100de578063a22cb46511610097578063d547cfb711610071578063d547cfb71461072c578063e985e9c514610734578063f2fde38b14610762578063f76b4431146107885761018e565b8063a22cb4651461061d578063b88d4fde1461064b578063c87b56dd1461070f5761018e565b80634f6ccce7146105a55780636352211e146105c257806370a08231146105df5780638456cb59146106055780638da5cb5b1461060d57806395d89b41146106155761018e565b806327dc297e1161014b57806338d470961161012557806338d47096146105095780633f4ba83a1461053b57806340c10f191461054357806342842e0e1461056f5761018e565b806327dc297e146103025780632f745c59146103ad57806338bbfa50146103d95761018e565b806301ffc9a71461019357806306fdde03146101ce578063081812fc1461024b578063095ea7b31461028457806318160ddd146102b257806323b872dd146102cc575b600080fd5b6101ba600480360360208110156101a957600080fd5b50356001600160e01b031916610881565b604080519115158252519081900360200190f35b6101d66108a4565b6040805160208082528351818301528351919283929083019185019080838360005b838110156102105781810151838201526020016101f8565b50505050905090810190601f16801561023d5780820380516001836020036101000a031916815260200191505b509250505060405180910390f35b6102686004803603602081101561026157600080fd5b503561093b565b604080516001600160a01b039092168252519081900360200190f35b6102b06004803603604081101561029a57600080fd5b506001600160a01b038135169060200135610956565b005b6102ba610a7e565b60408051918252519081900360200190f35b6102b0600480360360608110156102e257600080fd5b506001600160a01b03813581169160208101359091169060400135610a84565b6102b06004803603604081101561031857600080fd5b81359190810190604081016020820135600160201b81111561033957600080fd5b82018360208201111561034b57600080fd5b803590602001918460018302840111600160201b8311171561036c57600080fd5b91908080601f016020809104026020016040519081016040528093929190818152602001838380828437600092019190915250929550610aa7945050505050565b6102ba600480360360408110156103c357600080fd5b506001600160a01b038135169060200135610ac7565b6102b0600480360360608110156103ef57600080fd5b81359190810190604081016020820135600160201b81111561041057600080fd5b82018360208201111561042257600080fd5b803590602001918460018302840111600160201b8311171561044357600080fd5b91908080601f0160208091040260200160405190810160405280939291908181526020018383808284376000920191909152509295949360208101935035915050600160201b81111561049557600080fd5b8201836020820111156104a757600080fd5b803590602001918460018302840111600160201b831117156104c857600080fd5b91908080601f016020809104026020016040519081016040528093929190818152602001838380828437600092019190915250929550610aa2945050505050565b6102b06004803603606081101561051f57600080fd5b50803590602081013590604001356001600160a01b0316610b14565b6102b0610c94565b6101ba6004803603604081101561055957600080fd5b506001600160a01b038135169060200135610d6f565b6102b06004803603606081101561058557600080fd5b506001600160a01b03813581169160208101359091169060400135610e38565b6102ba600480360360208110156105bb57600080fd5b5035610e53565b610268600480360360208110156105d857600080fd5b5035610e87565b6102ba600480360360208110156105f557600080fd5b50356001600160a01b0316610ea2565b6102b0610ec9565b610268610fb2565b6101d6610fc1565b6102b06004803603604081101561063357600080fd5b506001600160a01b0381351690602001351515611022565b6102b06004803603608081101561066157600080fd5b6001600160a01b03823581169260208101359091169160408201359190810190608081016060820135600160201b81111561069b57600080fd5b8201836020820111156106ad57600080fd5b803590602001918460018302840111600160201b831117156106ce57600080fd5b91908080601f0160208091040260200160405190810160405280939291908181526020018383808284376000920191909152509295506110a6945050505050565b6101d66004803603602081101561072557600080fd5b50356110cc565b6101d661117f565b6101ba6004803603604081101561074a57600080fd5b506001600160a01b03813581169160200135166111e0565b6102b06004803603602081101561077857600080fd5b50356001600160a01b031661120e565b6102b0600480360361014081101561079f57600080fd5b6040805180820182529183019291818301918390600290839083908082843760009201829052506040805180820190915293969594608081019493509150600290835b8282101561082057604080518082018252908084028601906002908390839080828437600092019190915250505081526001909101906020016107e2565b5050604080518082018252939695948181019493509150600290839083908082843760009201919091525050604080518082018252929594938181019392509060029083908390808284376000920191909152509194506112c99350505050565b6001600160e01b0319811660009081526001602052604090205460ff165b919050565b600f8054604080516020601f60026000196101006001881615020190951694909404938401819004810282018101909252828152606093909290918301828280156109305780601f1061090557610100808354040283529160200191610930565b820191906000526020600020905b81548152906001019060200180831161091357829003601f168201915b505050505090505b90565b6000908152600360205260409020546001600160a01b031690565b61095f81610e87565b6001600160a01b0316826001600160a01b031614156109af5760405162461bcd60e51b815260040180806020018281038252602181526020018061218c6021913960400191505060405180910390fd5b6000546001600160a01b03163314806109d557506109d56109cf82610e87565b336111e0565b610a105760405162461bcd60e51b815260040180806020018281038252603b81526020018061225f603b913960400191505060405180910390fd5b600081815260036020526040902080546001600160a01b0319166001600160a01b0384169081179091558190610a4582610e87565b6001600160a01b03167f8c5be1e5ebec7d5bd14f71427d1e84f3dd0314c0f7b2291e5b200ac8c7c3b92560405160405180910390a45050565b60085490565b610a8e33826115b0565b610a9757600080fd5b610aa283838361160f565b505050565b604080516000815260208101909152610ac39083908390610aa2565b5050565b6000610ad283610ea2565b8210610add57600080fd5b6001600160a01b0383166000908152600660205260409020805483908110610b0157fe5b9060005260206000200154905092915050565b6040805160208082018690528183018590528251808303840181526060909201835281519181019190912060008181526015909252919020600101546001600160a01b0316610ba2576040805162461bcd60e51b815260206004820152601560248201527414dbdb1d5d1a5bdb881a5cc81b9bdd08199bdd5b99605a1b604482015290519081900360640190fd5b600081815260156020526040902060010154600160a01b900460ff1615610bfa5760405162461bcd60e51b815260040180806020018281038252602981526020018061229a6029913960400191505060405180910390fd5b6000818152601560205260409020600101546001600160a01b03163314610c525760405162461bcd60e51b815260040180806020018281038252604081526020018061221f6040913960400191505060405180910390fd5b600081815260156020526040902054610c6c908390610d6f565b506000908152601560205260409020600101805460ff60a01b1916600160a01b179055505050565b6000546001600160a01b03163314610ce1576040805162461bcd60e51b815260206004820181905260248201526000805160206121de833981519152604482015290519081900360640190fd5b600054600160a01b900460ff16610d38576040805162461bcd60e51b815260206004820152601660248201527510dbdb9d1c9858dd081a5cc81b9bdd081c185d5cd95960521b604482015290519081900360640190fd5b6000805460ff60a01b1916815560405133917f5db9ee0a495bf2e6ff9c91a7834c1ba4fdd244a5e8aa4e537bd38aeae4b073aa91a2565b600080546001600160a01b03163314610dbd576040805162461bcd60e51b815260206004820181905260248201526000805160206121de833981519152604482015290519081900360640190fd5b600054600160a01b900460ff1615610e1c576040805162461bcd60e51b815260206004820152601c60248201527f436f6e74726163742069732063757272656e746c792070617573656400000000604482015290519081900360640190fd5b610e26838361162e565b610e2f8261164b565b50600192915050565b610aa2838383604051806020016040528060008152506110a6565b6000610e5d610a7e565b8210610e6857600080fd5b60088281548110610e7557fe5b90600052602060002001549050919050565b6000908152600260205260409020546001600160a01b031690565b6001600160a01b0381166000908152600460205260408120610ec39061175e565b92915050565b6000546001600160a01b03163314610f16576040805162461bcd60e51b815260206004820181905260248201526000805160206121de833981519152604482015290519081900360640190fd5b600054600160a01b900460ff1615610f75576040805162461bcd60e51b815260206004820152601c60248201527f436f6e74726163742069732063757272656e746c792070617573656400000000604482015290519081900360640190fd5b6000805460ff60a01b1916600160a01b17815560405133917f62e78cea01bee320cd4e420270b5ea74000d11b0c9f74754ebdbfc544b05a25891a2565b6000546001600160a01b031690565b60108054604080516020601f60026000196101006001881615020190951694909404938401819004810282018101909252828152606093909290918301828280156109305780601f1061090557610100808354040283529160200191610930565b6001600160a01b03821633141561103857600080fd5b3360008181526005602090815260408083206001600160a01b03871680855290835292819020805460ff1916861515908117909155815190815290519293927f17307eab39ab6107e8899845ad3d59bd9653f200f220920489ca2b5937696c31929181900390910190a35050565b6110b1848484610a84565b6110bd84848484611762565b6110c657600080fd5b50505050565b60606110d782611895565b6110e057600080fd5b60008281526012602090815260409182902080548351601f6002600019610100600186161502019093169290920491820184900484028101840190945280845290918301828280156111735780601f1061114857610100808354040283529160200191611173565b820191906000526020600020905b81548152906001019060200180831161115657829003601f168201915b50505050509050919050565b60118054604080516020601f60026000196101006001881615020190951694909404938401819004810282018101909252828152606093909290918301828280156109305780601f1061090557610100808354040283529160200191610930565b6001600160a01b03918216600090815260056020908152604080832093909416825291909152205460ff1690565b6000546001600160a01b0316331461125b576040805162461bcd60e51b815260206004820181905260248201526000805160206121de833981519152604482015290519081900360640190fd5b6001600160a01b03811661126e57600080fd5b600080546040516001600160a01b03808516939216917f8be0079c531659141344cd1fd0a4f28419497f9722a3daafe3b4186f6b6457e091a3600080546001600160a01b0319166001600160a01b0392909216919091179055565b80516020808301516040805180840194909452838101919091528051808403820181526060909301815282519282019290922060008181526015909252919020600101546001600160a01b031615611368576040805162461bcd60e51b815260206004820152601760248201527f536f6c7574696f6e2065786973747320616c7265616479000000000000000000604482015290519081900360640190fd5b601354604080516301887a7b60e61b81526000926001600160a01b03169163621e9ec091899189918991899160040190819086908083838d5b838110156113b95781810151838201526020016113a1565b505050509050018460026000925b818410156114075760208402830151604080838360005b838110156113f65781810151838201526020016113de565b5050505090500192600101926113c7565b9250505083600260200280838360005b8381101561142f578181015183820152602001611417565b5050505090500182600260200280838360005b8381101561145a578181015183820152602001611442565b5050505090500194505050505060206040518083038186803b15801561147f57600080fd5b505afa158015611493573d6000803e3d6000fd5b505050506040513d60208110156114a957600080fd5b50519050806114ff576040805162461bcd60e51b815260206004820152601e60248201527f536f6c7574696f6e20636f756c64206e6f742062652076657269666965640000604482015290519081900360640190fd5b60408051606081018252601480548252336020808401828152600085870181815289825260158452908790209551865590516001909501805491511515600160a01b0260ff60a01b196001600160a01b039097166001600160a01b031990931692909217959095161790935590548351908152925190927f078793128cefb19aac38a33f9e5df39f67716907f6d747e8065545699e0b2b8d92908290030190a2505060148054600101905550505050565b6000806115bc83610e87565b9050806001600160a01b0316846001600160a01b031614806115f75750836001600160a01b03166115ec8461093b565b6001600160a01b0316145b80611607575061160781856111e0565b949350505050565b61161a8383836118b2565b6116248382611a01565b610aa28282611af6565b6116388282611b34565b6116428282611af6565b610ac381611c08565b61165481611895565b61169b576040805162461bcd60e51b8152602060048201526013602482015272151bdad95b88191bd95cdb89dd08195e1a5cdd606a1b604482015290519081900360640190fd5b60118054604080516020601f6002600019610100600188161502019095169490940493840181900481028201810190925282815261173b93909290918301828280156117285780601f106116fd57610100808354040283529160200191611728565b820191906000526020600020905b81548152906001019060200180831161170b57829003601f168201915b505050505061173683611c4c565b611d0d565b60008281526012602090815260409091208251610ac393919291909101906120d3565b5490565b6000611776846001600160a01b0316611d50565b61178257506001611607565b604051630a85bd0160e11b815233600482018181526001600160a01b03888116602485015260448401879052608060648501908152865160848601528651600095928a169463150b7a029490938c938b938b939260a4019060208501908083838e5b838110156117fc5781810151838201526020016117e4565b50505050905090810190601f1680156118295780820380516001836020036101000a031916815260200191505b5095505050505050602060405180830381600087803b15801561184b57600080fd5b505af115801561185f573d6000803e3d6000fd5b505050506040513d602081101561187557600080fd5b50516001600160e01b031916630a85bd0160e11b14915050949350505050565b6000908152600260205260409020546001600160a01b0316151590565b6118bb81610e87565b6001600160a01b0316836001600160a01b03161461190a5760405162461bcd60e51b81526004018080602001828103825260218152602001806121fe6021913960400191505060405180910390fd5b6001600160a01b03821661195a576040805162461bcd60e51b81526020600482015260126024820152711059191c995cdcc81a5cc81a5b9d985b1a5960721b604482015290519081900360640190fd5b61196381611d89565b6001600160a01b038316600090815260046020526040902061198490611dc6565b6001600160a01b03821660009081526004602052604090206119a590611ddd565b60008181526002602052604080822080546001600160a01b0319166001600160a01b0386811691821790925591518493918716917fddf252ad1be2c89b69c2b068fc378daa952ba7f163c4a11628f55a4df523b3ef91a4505050565b6001600160a01b038216600090815260066020526040812054611a2b90600163ffffffff611de616565b600083815260076020526040902054909150808214611ac6576001600160a01b0384166000908152600660205260408120805484908110611a6857fe5b906000526020600020015490508060066000876001600160a01b03166001600160a01b031681526020019081526020016000208381548110611aa657fe5b600091825260208083209091019290925591825260079052604090208190555b6001600160a01b0384166000908152600660205260409020805490611aef906000198301612151565b5050505050565b6001600160a01b0390911660009081526006602081815260408084208054868652600784529185208290559282526001810183559183529091200155565b611b3d81611895565b158015611b5257506001600160a01b03821615155b611b8d5760405162461bcd60e51b81526004018080602001828103825260318152602001806121ad6031913960400191505060405180910390fd5b600081815260026020908152604080832080546001600160a01b0319166001600160a01b038716908117909155835260049091529020611bcc90611ddd565b60405181906001600160a01b038416906000907fddf252ad1be2c89b69c2b068fc378daa952ba7f163c4a11628f55a4df523b3ef908290a45050565b600880546000838152600960205260408120829055600182018355919091527ff3f7a9fe364faab93b216da50a3214154f22a0a2b415b23a84c8169e8b636ee30155565b606081611c7157506040805180820190915260018152600360fc1b602082015261089f565b8160005b8115611c8957600101600a82049150611c75565b6060816040519080825280601f01601f191660200182016040528015611cb6576020820181803883390190505b50905060001982015b8515611d0457600a860660300160f81b82828060019003935081518110611ce257fe5b60200101906001600160f81b031916908160001a905350600a86049550611cbf565b50949350505050565b6060611d498383604051806020016040528060008152506040518060200160405280600081525060405180602001604052806000815250611e28565b9392505050565b6000813f7fc5d2460186f7233c927e7db2dcc703c0e500b653ca82273b7bfad8045d85a470818114801590611607575050151592915050565b6000818152600360205260409020546001600160a01b031615611dc357600081815260036020526040902080546001600160a01b03191690555b50565b8054611dd990600163ffffffff611de616565b9055565b80546001019055565b6000611d4983836040518060400160405280601e81526020017f536166654d6174683a207375627472616374696f6e206f766572666c6f77000081525061203c565b6060808690506060869050606086905060608690506060869050606081518351855187518951010101016040519080825280601f01601f191660200182016040528015611e7c576020820181803883390190505b509050806000805b8851811015611ed557888181518110611e9957fe5b602001015160f81c60f81b838380600101945081518110611eb657fe5b60200101906001600160f81b031916908160001a905350600101611e84565b5060005b8751811015611f2a57878181518110611eee57fe5b602001015160f81c60f81b838380600101945081518110611f0b57fe5b60200101906001600160f81b031916908160001a905350600101611ed9565b5060005b8651811015611f7f57868181518110611f4357fe5b602001015160f81c60f81b838380600101945081518110611f6057fe5b60200101906001600160f81b031916908160001a905350600101611f2e565b5060005b8551811015611fd457858181518110611f9857fe5b602001015160f81c60f81b838380600101945081518110611fb557fe5b60200101906001600160f81b031916908160001a905350600101611f83565b5060005b845181101561202957848181518110611fed57fe5b602001015160f81c60f81b83838060010194508151811061200a57fe5b60200101906001600160f81b031916908160001a905350600101611fd8565b50909d9c50505050505050505050505050565b600081848411156120cb5760405162461bcd60e51b81526004018080602001828103825283818151815260200191508051906020019080838360005b83811015612090578181015183820152602001612078565b50505050905090810190601f1680156120bd5780820380516001836020036101000a031916815260200191505b509250505060405180910390fd5b505050900390565b828054600181600116156101000203166002900490600052602060002090601f016020900481019282601f1061211457805160ff1916838001178555612141565b82800160010185558215612141579182015b82811115612141578251825591602001919060010190612126565b5061214d929150612171565b5090565b815481835581811115610aa257600083815260209020610aa29181019083015b61093891905b8082111561214d576000815560010161217756fe4164647265737320746f20616c7265616479206f776e732074686520746f6b656e546f6b656e20616c726561647920657869737473206f722073656e646572206164647265737320697320696e76616c696443616c6c6572206973206e6f742074686520636f6e7472616374206f776e65724f6e6c7920746f6b656e206f776e65722063616e20706572666f726d20746869734f6e6c7920616464726573732066726f6d20776869636820736f6c7574696f6e206973207375626d69747465642063616e206d696e742074686520746f6b656e4f6e6c79206f776e6572206f662074686520636f6e7472616374206f7220617070726f766564206f70657261746f722063616e20617070726f7665536f6c7574696f6e20666f72207468697320746f6b656e20697320616c7265616479206d696e746564a265627a7a72315820f960d30f78809c0678b8c12e93ef5d0b77e3ab0f36a10b752affbe20690d73b164736f6c6343000510003268747470733a2f2f73332d75732d776573742d322e616d617a6f6e6177732e636f6d2f756461636974792d626c6f636b636861696e2f63617073746f6e652f",
  "source": "pragma solidity >0.4.24;\r\n\r\nimport \"./ERC721Mintable.sol\";\r\n\r\n// TODO define a contract call to the zokrates generated solidity contract <Verifier> or <renamedVerifier>\r\ncontract SolnSquareVerifier is ERC721Mintable {\r\n    // TODO define another contract named SolnSquareVerifier that inherits from your ERC721Mintable class\r\n    Verifier private verifierContract;\r\n\r\n    // TODO define a solutions struct that can hold an index & an address\r\n    struct Solution {\r\n        uint256 solutionIndex;\r\n        address solutionAddress;\r\n        bool minted; //flag to indicate if this solution has been used in token minting\r\n    }\r\n\r\n    // TODO define an array of the above struct\r\n    //Solution[] private solutions;\r\n    uint256 numberOfSolutions = 0;\r\n\r\n    // TODO define a mapping to store unique solutions submitted\r\n    mapping (bytes32 => Solution) solutions;\r\n\r\n    // TODO Create an event to emit when a solution is added\r\n    event SolutionAdded(uint256 solutionIndex, address indexed solutionAddress);\r\n\r\n    constructor(address verifierAddress, string memory name, string memory symbol)\r\n    ERC721Mintable(name, symbol)\r\n    public\r\n    {\r\n        verifierContract = Verifier(verifierAddress);\r\n    }\r\n\r\n    // TODO Create a function to add the solutions to the array and emit the event\r\n    function addSolution(\r\n        uint[2] memory a,\r\n        uint[2][2] memory b,\r\n        uint[2] memory c, uint[2] memory input\r\n    )\r\n    public\r\n    {\r\n        bytes32 solutionHash = keccak256(abi.encodePacked(input[0], input[1]));\r\n        require(solutions[solutionHash].solutionAddress == address(0), \"Solution exists already\");\r\n\r\n        bool verified = verifierContract.verifyTx(a, b, c, input);\r\n        require(verified, \"Solution could not be verified\");\r\n\r\n        solutions[solutionHash] = Solution(numberOfSolutions, msg.sender, false);\r\n        //solutions.push(solution);\r\n        emit SolutionAdded(numberOfSolutions, msg.sender);\r\n        numberOfSolutions++;\r\n    }\r\n\r\n    // TODO Create a function to mint new NFT only after the solution has been verified\r\n    //  - make sure the solution is unique (has not been used before)\r\n    //  - make sure you handle metadata as well as tokenSuplly\r\n    function mintNewNFT(uint a, uint b, address to) public\r\n    {\r\n        bytes32 solutionHash = keccak256(abi.encodePacked(a, b));\r\n        require(solutions[solutionHash].solutionAddress != address(0), \"Solution is not found\");\r\n        require(solutions[solutionHash].minted == false, \"Solution for this token is already minted\");\r\n        require(solutions[solutionHash].solutionAddress == msg.sender, \"Only address from which solution is submitted can mint the token\");\r\n        super.mint(to, solutions[solutionHash].solutionIndex);\r\n        solutions[solutionHash].minted = true;\r\n    }\r\n}\r\n\r\n// 1. TODO define a contract call to the zokrates generated solidity contract <Verifier> or <renamedVerifier>\r\ncontract Verifier {\r\n    function verifyTx(\r\n        uint[2] memory a,\r\n        uint[2][2] memory b,\r\n        uint[2] memory c, uint[2] memory input\r\n    )\r\n    public\r\n    view\r\n    returns\r\n    (bool r);\r\n}\r\n",
  "sourcePath": "C:/Users/andre/WebstormProjects/Blockchain-Capstone/contracts/SolnSquareVerifier.sol",
  "compiler": {
    "name": "solc",
    "version": "0.5.16+commit.9c3226ce.Emscripten.clang"
  },
  "schemaVersion": "3.4.1",
  "updatedAt": "2021-06-03T10:37:34.070Z",
  "networkType": "ethereum",
  "devdoc": {
    "methods": {
      "isApprovedForAll(address,address)": {
        "details": "Tells whether an operator is approved by a given owner",
        "params": {
          "operator": "operator address which you want to query the approval of",
          "owner": "owner address which you want to query the approval of"
        },
        "return": "bool whether the given operator is approved by the given owner"
      },
      "pause()": {
        "details": "called by the owner to pause, triggers stopped state"
      },
      "setApprovalForAll(address,bool)": {
        "details": "Sets or unsets the approval of a given operator An operator is allowed to transfer all tokens of the sender on their behalf",
        "params": {
          "approved": "representing the status of the approval to be set",
          "to": "operator address to set the approval"
        }
      },
      "supportsInterface(bytes4)": {
        "details": "implement supportsInterface(bytes4) using a lookup table"
      },
      "tokenByIndex(uint256)": {
        "details": "Gets the token ID at a given index of all the tokens in this contract Reverts if the index is greater or equal to the total number of tokens",
        "params": {
          "index": "uint256 representing the index to be accessed of the tokens list"
        },
        "return": "uint256 token ID at the given index of the tokens list"
      },
      "tokenOfOwnerByIndex(address,uint256)": {
        "details": "Gets the token ID at a given index of the tokens list of the requested owner",
        "params": {
          "index": "uint256 representing the index to be accessed of the requested tokens list",
          "owner": "address owning the tokens list to be accessed"
        },
        "return": "uint256 token ID at the given index of the tokens list owned by the requested address"
      },
      "totalSupply()": {
        "details": "Gets the total amount of tokens stored by the contract",
        "return": "uint256 representing the total amount of tokens"
      },
      "unpause()": {
        "details": "called by the owner to unpause, returns to normal state"
      }
    }
  },
  "userdoc": {
    "methods": {}
  }
}